:020000040800F2
:2000000028440020510F00083D0F00083F0F0008410F0008430F0008450F00080000000034
:20002000000000000000000000000000470F0008490F0008000000004B0F00084D0F00083C
:200040006D0F0008710F0008750F0008790F00087D0F0008810F0008850F0008890F000810
:200060008D0F0008910F0008950F0008990F00089D0F0008A10F0008A50F0008A90F0008F0
:20008000AD0F0008B10F0008B50F0008B90F0008BD0F0008C10F0008C50F0008C90F0008D0
:2000A000CD0F0008D10F0008D50F0008D90F0008DD0F0008E10F0008E50F0008E90F0008B0
:2000C000ED0F0008F10F0008F50F0008F90F0008FD0F00080110000805100008091000088D
:2000E0000D1000081110000815100008191000081D10000821100008251000082910000868
:200100002D1000083110000835100008391000083D10000841100008451000084910000847
:200120004D1000085110000855100008591000085D10000861100008651000086910000827
:200140006D1000087110000875100008791000087D10000881100008851000088910000807
:200160008D1000089110000895100008991000089D100008A1100008A510000800000000A8
:20018000A9100008AD1000082DE9F8430446DFF85C562078DFF84C66C00626D5B06810F0BB
:2001A0000C0F3AD13068800702D5A069002832D0306800074EBF30686868000900F0F001F2
:2001C000206A814206D200F0D0FA002823D100F0BEF905E000F0BBF9206A00F0C6FAD0B931
:2001E00000F06CFAB26800F054FA2078C00774D500F0A9F9082808D000F0A5F90C2802BF8C
:20020000F06800F0030003282AD13068800364D56068002861D101208AE1A06900283068A2
:2002200010D040F0010000F085F907463068800705D400F012FBC01B0328F7D375E100F0E7
:2002400086F9D2E74008400000F074F9074630688007CAD500F001FBC01B0328F7D364E175
:2002600000F06BF920F4802000F064F907463068800305D500F0F1FAC01B6528F7D354E1A5
:200280006068B0F5803F07D0B0F5A02F00F055F906D140F480203060306840F4803001E011
:2002A00020F480203060606858B100F0D6FA07463068800311D400F0D0FAC01B6528F7D330
:2002C00033E100F0CAFA07463068800305D500F0C4FAC01B6528F7D327E12078800719D51F
:2002E00000F031F9042808D000F02DF90C2802BFF06800F00300022822D13068400502D5B9
:20030000E068002887D07068216920F0F85040EA016070602078000741D56069002868688B
:200320002ED040F00100686000F097FA07466868800734D400F091FAC01B0328F7D3F4E07A
:20034000E068002830680DD040F4807000F0F2F8074630684005D6D400F07FFAC01B032877
:20036000F7D3E2E020F4807000F0E4F8074630684005CFD500F071FAC01B0328F7D3D4E074
:2003800040084000686000F068FA07466868800705D500F062FAC01B0328F7D3C5E02078E4
:2003A000400766D5B06DC0004FF000080AD4B06D40F08050B0654FF00108B06D00F0805062
:2003C00000900098DFF82894D9F80000C00512D4D9F8000040F48070C9F8000000F03DFA09
:2003E0000746D9F80000C00505D400F036FAC01B0328F6D399E0A06801280CD008B928687B
:200400000DE0052828680AD1400840002860286840F004002860286840F0010005E040080D
:2004200040002860286820F00400286041F28939A06858B100F011FA07462868800711D47E
:2004400000F00BFAC01B4845F7D36EE000F005FA07462868800705D500F0FFF9C01B4845AA
:20046000F7D362E0B8F1000F03D0B06D20F08050B065606A00285AD0B16801F00C010C296B
:200480003FF4C9AE0228306820F08070306038D100F0E3F907463068800105D500F0DDF985
:2004A000C01B0328F7D340E0E06A216B401E090241EA0010616B090940EA4140A16A0843F3
:2004C000A16B891E0905490D40EA4150E16B891E090601F07E410843F060306840F0807045
:2004E0003060F06840F08070F06000F0B6F90746306880011BD400F0B0F9C01B0328F7D347
:2005000013E0F068DFF8EC1280088000F060F0680840F06000F0A1F907463068800106D5A8
:2005200000F09BF9C01B0328F7D3032000E00020BDE8F283306000F090B9306820F4803005
:20054000306030687047B06800F00C007047306840F0080030603068216A20F0F000084323
:2005600030607068E16920F47F4040EA0120706070472DE9F843DFF880620446306888466A
:2005800000F00700404502D200F08EF864D12078DFF85072800705D5B868A16820F0F000A5
:2005A0000843B8602078C0074ED56068022802D13968890308E0032802D13968890103E070
:2005C0000028396802D1890702D445E0490543D5B968890840EA8100B86041F2893900F034
:2005E0003CF90546606802280AD1B86800F00C00082829D000F031F9401B4845F5D321E09E
:2006000003280AD1B86800F00C000C281CD000F024F9401B4845F5D314E048B9B86810F0C6
:200620000C0F11D000F019F9401B4845F6D309E0B86800F00C00042806D000F00EF9401BB2
:200640004845F5D3032022E0306800F00700804504D200F029F801D0012018E0207840071C
:2006600005D5B868E16820F4E0600843B8602078000706D5B868216920F4605040EAC100AD
:20068000B86000F01BF8BA6800F003F80020BDE8F2835A49C2F30312515C20FA01F2524837
:2006A00002600F2000F0C2B83068C00848EAC0003060306800F007004045704749498B680D
:2006C0000022002013F00C0F09D08B6803F00C030C2B02BFCB6803F00303012B13D10A6846
:2006E000120704D4464A1268C2F3032202E00A68C2F30312434B53F822208B6813F00C0FDB
:200700000ED110460CE08B6803F00C03042B08BF3D4805D08B6803F00C03082B08BF3B4801
:200720008B6803F00C030C2B1ED1C868CB68C3F302135B1C00F00300022802D0032802D00D
:2007400005E0314800E03148B0FBF3F001E0B2FBF3F0CA68C968C1F34161C2F30622491CE8
:2007600050434900B0FBF1F0704770B5284E82B0054630680024C00002D500F075F80EE0A4
:20078000306840F080503060306800F080500090009800F069F8316821F080513160B0F5AF
:2007A000007F04D1812D0DD3A12D0AD305E0812D28BF032406D2802D01D1022402E0702D0F
:2007C00000D101240C480168C90844EAC1010160006800F00700A04201D0012076BD0020BE
:2007E00076BD0000001002401C4000209010024000700040FFFFEEFE002002402C0E0008D8
:20080000941002403C0E00080024F40000127A005810024080B5032000F03BF80F2000F0B8
:2008200005F800F002F8002002BD704710B504460B4800684FF47A71B0FBF1F000F060F86F
:20084000002221464FF0FF3000F030F8002010BD04480168491C0160704702480068704701
:200860001C40002020400020DFF80800006800F4C0607047007000400901002806D52A4A39
:2008800000F00F00801800F8041C7047274A8154704727490A684FF6FF031A4000F007007B
:2008A00042EA0020234A10430860704770B5204B1B68C3F302230124C3F10705052D2EBF1B
:2008C0000F2504FA05F56D1E1E1D072E34BF0023DB1E2940994004FA03F3BDE870405B1EDE
:2008E0001A401143C8E7BFF34F8F1148124A016801F4E06111430160BFF34F8F00BFFDE7CF
:2009000010B5401EB0F1807F01D3012010BD0B4C60600F214FF0FF30FFF7AEFF0020A060DA
:2009200007202060002010BD18ED00E000E400E00CED00E00000FA050400FA0510E000E0CF
:200940002DE9F047DFF8E45106462878002701288A461446984608BF022026D00120287062
:200960004CF25039484600F033F8E0B9686036B922464346504600F0C0F801270BE0012E46
:2009800018BF022E07D12146504600F0BFF8022E08BF4FF48027484600F01AF81FB16449E6
:2009A0000A68BA430A6000212970BDE8F0876248C168002903D561490160614905E00120F9
:2009C00070475B48016841F0004101600020704770B50546FFF741FF2E18564C2068C003D1
:2009E00008D515F1010FF9D0FFF737FFB042F5D3032070BD206880071DD4206800071AD488
:200A00002068C00617D42068800614D42068400611D4206800060ED42068C0050BD42068D0
:200A2000800508D42068400405D4206800045CBFA068002803D500F009F8012070BD20683A
:200A4000C00744BF01202060002070BD394937480A68920703D5426842F0010242600A6807
:200A6000120703D5426842F0020242600A68D20603D5426842F0040242600A68920603D57B
:200A8000426842F0080242600A68520603D5426842F0100242600A68120603D5426842F05E
:200AA000200242600A68D20503D5426842F0400242600A68920503D5426842F080024260B0
:200AC0000A68520403D5426842F4807242600A68120403D5426842F4007242608A68002A92
:200AE00003D5426842F480624260886840F0004088604CF2FA300860704710B50C490C685D
:200B000044F001040C600260436010BD30B5084A136843F48023136072B62022F1E80245D5
:200B2000E0E80245521EF9D162B630BD0040002014200240102002400820024023016745E5
:200B4000AB89EFCD2DE9F047DFF83861044630780128894608BF02203CD0012030704CF20A
:200B6000503A00F039F85FEA000830D17060DFF81851206801280BD1606800F030F800F00B
:200B80002BF880462868DFF80411084028601CE04FF0FF30C9F80000A76800E07F1CA06863
:200BA000E1680818874210D26168384600F029F800F012F880462868DFF8D4100840B8F1CD
:200BC000000F2860EAD0C9F8007000F032F8002030704046BDE8F0875046FFF7F9BEC2070B
:200BE000294903D50A6842F004020A60800703D5086840F400400860086840F48030086030
:200C00007047214AC90711684CBF21F4006141F400611160116821F4FF6141EAC000106098
:200C2000106840F002001060106840F48030106070471848016889050FD5016821F40071ED
:200C40000160016841F400610160016821F400610160016841F400710160016849050FD588
:200C6000016821F480610160016841F480510160016821F480510160016841F48061016054
:200C8000704700000040002014200240FB7FFFFF05F8FFFF0020024030B54B484B499BB09B
:200CA00000680090009888426CD1FFF7B3FD10200A90012010906020129000201190022067
:200CC0001390012014901590282016900220199007201790042018900AA8FFF755FA00B10C
:200CE000FEE70F200590042103200690002007900890099005A8FFF73CFC00B1FEE7009084
:200D0000019001200290324C204600F044F8039078200490FFF74BFE00A901A8FFF712FF28
:200D200000B1FEE7FFF74DFEFFF741FE0025294825F0070108186119D0E900230020FFF768
:200D4000FFFD00B1FEE70835B5F5703FEFDBFFF738FE00200090FFF72AFE002001900120D5
:200D60000290194800F017F8039000A97820049001A8FFF7E7FE00B1FEE7FFF722FEFFF7F3
:200D8000B2FD05E012484168006880F30888884700201BB030BD104909884FF6FF72914237
:200DA0000FBF0E4B0B05DB0A03F10063984207D391420EBF4FF480110905890AA0EB61000B
:200DC000A0F10060C00A704700000408EFBEADDE0040000808000408E075FF1F000008087E
:200DE0000E480F4A016841F4700101600D48016841F0010101600021816001681140016065
:200E00004FF48051C160016821F480210160002181614FF0006004490860704788ED00E0BA
:200E2000FFFFF6EA0010024008ED00E000000000000000000102030406070809A08601005E
:200E4000400D0300801A060000350C0040420F0080841E0000093D0000127A000024F400C4
:200E600000366E010048E801006CDC0210B450F8041B79B10268436812180830DC0744BFA0
:200E8000A9F10104E31852F8044B43F8044B091FF9D1ECE710BC704710B507497944183132
:200EA000064C7C44163404E00A68081D511888470146A142F8D110BD2C0000003C000000FB
:200EC0004EF68851CEF20001086840F470000860BFF34F8FBFF36F8F4FF00070E1EE100AE0
:200EE0007047000089FFFFFF24000000C4010000004000200000000000F00BF8002801D080
:200F0000FFF7CAFF0020C046C046FFF7C5FE00F002F80120704700F001B8000007463846F7
:200F200000F002F8FBE7000080B5C046C046024A11001820ABBEFBE7260002007047FEE700
:200F4000FEE7FEE7FEE7704770477047FFF780BC0148804701480047E10D0008610F00087D
:200F6000C046C046FFF7ACFFFFF7C6FFFFF7FEBFFFF7FEBFFFF7FEBFFFF7FEBFFFF7FEBF8A
:200F8000FFF7FEBFFFF7FEBFFFF7FEBFFFF7FEBFFFF7FEBFFFF7FEBFFFF7FEBFFFF7FEBFB9
:200FA000FFF7FEBFFFF7FEBFFFF7FEBFFFF7FEBFFFF7FEBFFFF7FEBFFFF7FEBFFFF7FEBF99
:200FC000FFF7FEBFFFF7FEBFFFF7FEBFFFF7FEBFFFF7FEBFFFF7FEBFFFF7FEBFFFF7FEBF79
:200FE000FFF7FEBFFFF7FEBFFFF7FEBFFFF7FEBFFFF7FEBFFFF7FEBFFFF7FEBFFFF7FEBF59
:20100000FFF7FEBFFFF7FEBFFFF7FEBFFFF7FEBFFFF7FEBFFFF7FEBFFFF7FEBFFFF7FEBF38
:20102000FFF7FEBFFFF7FEBFFFF7FEBFFFF7FEBFFFF7FEBFFFF7FEBFFFF7FEBFFFF7FEBF18
:20104000FFF7FEBFFFF7FEBFFFF7FEBFFFF7FEBFFFF7FEBFFFF7FEBFFFF7FEBFFFF7FEBFF8
:20106000FFF7FEBFFFF7FEBFFFF7FEBFFFF7FEBFFFF7FEBFFFF7FEBFFFF7FEBFFFF7FEBFD8
:20108000FFF7FEBFFFF7FEBFFFF7FEBFFFF7FEBFFFF7FEBFFFF7FEBFFFF7FEBFFFF7FEBFB8
:2010A000FFF7FEBFFFF7FEBFFFF7FEBFFFF7FEBF0000000000000000000000000000000064
:2010C00000000000000000000000000000093D0000000000FFFFFFFFFFFFFFFFFFFFFFFFD6
:2010E000FFFFFFFFFFFFFFFFFFFFFFFFFFFFFFFFFFFFFFFFFFFFFFFFFFFFFFFFFFFFFFFF10
:20110000FFFFFFFFFFFFFFFFFFFFFFFFFFFFFFFFFFFFFFFFFFFFFFFFFFFFFFFFFFFFFFFFEF
:20112000FFFFFFFFFFFFFFFFFFFFFFFFFFFFFFFFFFFFFFFFFFFFFFFFFFFFFFFFFFFFFFFFCF
:20114000FFFFFFFFFFFFFFFFFFFFFFFFFFFFFFFFFFFFFFFFFFFFFFFFFFFFFFFFFFFFFFFFAF
:020000040800F2
:020000040800F2
:2040000008D90020458D0208518C0208538C0208558C0208578C0208598C0208000000002C
:204020000000000000000000000000005B8C02085D8C0208000000005F8C0208618C0208B0
:20404000618D0208658D0208698D02086D8D0208718D0208758D0208798D02087D8D020830
:204060007F8C0208818D0208858D0208898D02088D8D0208918D0208958D0208998D02082F
:204080009D8D0208A18D0208A58D0208A98D0208AD8D0208B18D0208B58D0208798C020851
:2040A000B98D0208BD8D0208C18D02086B8C0208C58D0208C98D0208658C0208CD8D0208E8
:2040C000D18D0208D58D0208D98D0208DD8D0208E18D0208E58D0208E98D0208ED8D020830
:2040E000F18D0208F58D0208F98D0208FD8D0208018E0208058E0208098E02080D8E02080C
:20410000118E0208158E0208198E02081D8E0208218E0208258E0208298E02082D8E0208E7
:20412000318E0208358E0208398E02083D8E0208418E0208458E0208498E02084D8E0208C7
:20414000518E0208558E0208598E02085D8E0208618E0208658E0208698E02086D8E0208A7
:20416000718E0208758E0208798E02087D8E0208818E0208858E0208898E020800000000AC
:204180008D8E0208918E020800B581B090ED010A90ED001AD0ED020A20EE000A01EE010AF1
:2041A00000EEA00A10EE100A09F042FC41EC100B09F06AFC51EC100B09F0E6FC00EE100A36
:2041C00001B000BDD0ED000A90ED012AD0ED022A90ED034A20EE823A22EE021A62EE221ACD
:2041E00062EE044A20EEA00A60EEA23A22EEA22A22EE845A60EE840A64EE042A08460322A6
:2042000000230360436083600C30521EF9D130EE414A34EE424A34EE224A81ED004A33EE5E
:20422000054AF0EE005A24EE254A81ED034A33EEE44A24EE254A81ED064A33EE453AB0EEEF
:20424000004A23EE043A81ED013A31EE403A33EE423A33EE223A81ED043A31EEA03A23EEB3
:20426000043A81ED073A33EEA43AF0EE003A71EEE00AB1EE400A23EE233AF0EE001A30EE84
:20428000410A81ED023A60EEA10A30EE020AC1ED050A30EE220A81ED080A7047002838D098
:2042A000042801D20120704742F21071884238BF022122D3DFF8E02D904238BF64211CD378
:2042C000DFF8D82D904238BF4FF49E7115D3DFF8D02D904238BF4FF47A710ED3DFF8C42D8B
:2042E000904232BF40F65A41DFF8BC2D904204D347F6863101E089184908B0FBF1F2914299
:2043000034BF531A8B1A022BF5D2914228BF114688B270472DE9F04F81B0DFF8901D2DED7E
:20432000068B91F8D81332298AB043DAB9B3DFF87C3D03EB0114B0F9063034F90A6C9E4265
:20434000B4BF35461D469E42B8BF1E46DFF85C3DB3F9DA3305933A2717FB03F3C62793FBAC
:20436000F7F35D19B5421ADB0A3CB0F90860B4F90250B542B4BF2F463746B542B8BF354656
:20438000DE19AE420BDBB4F90440B0F90A502E46AC42BCBF254634465B19A3420ADADFF886
:2043A0000C3D03EB011278C878C2481CDFF8FC1C81F8D803DFF8F40C90F8D803322840F0CE
:2043C0007C8500208DF80600DFF84C0ECDF810009DF80600401C8DF804009DF80600401CB4
:2043E000C0B2322880F22A859DF80410DFF8BC0C00EB0110801D03909DF80400401C8DF8E2
:2044000005009DF80400401CC0B2322880F209859DF80510DFF8940C00EB0110801D02908A
:204420009DF80500401C8DF807009DF80710DFF87C0C00EB0110841D21E000BFDFF86C0C43
:20444000DFF8681CB0F8E203401CA1F8E2031034D1F8E40300FA87F0C1F8E403D1F8E803E1
:2044600000FA88F0C1F8E803D1F8EC0300FA89F0C1F8EC039DF80700401C8DF807009DF83A
:204480000700322880F2C08404980399029A049D039E029FB0F90000B1F90010B2F9002020
:2044A000B4F90030B5F90250B6F90260B7F90270B4F902E0DDF810C0CDF814E0A5EB070A5E
:2044C000DDF80CE0BCF904C0BEF90490DDF808E0B4F90480BEF904E0CDF800A0A6EB070BC6
:2044E000AEEB0C0A0AFB0BFADDF800B0A9EB0E0909FB0BAA00EE10AAA2EB000A891AACEBA1
:204500000E0C0AFB09F901FB0C9C01EE902AB8EEC00A00EE90CA7D1BF8EEE11A02EE107A82
:20452000F8EEE00A801AF61B694361EE801AB8EEC22A06FB001042EE201A01EE100A02EE65
:2045400010EAB8EEC11AB8EEC22A05A842EE011A02EE103AB0F90000B8EEC22A22EE002AA7
:2045600002EE900AF8EEE22A20EE000A02EEA02A00EEA00A02EE908A01EE010ADFEDE10A9A
:20458000F8EEE22AB4EE600AF1EE611A02EE812AF1EE10FA32EE218A13D5B5EE408AF1EE40
:2045A00010FABCEEC00A48BFB1EE488A10EE100AFFF774FE00EE100AB8EE400A88EE000A0D
:2045C0001CE0F2EE040AC8EE208AF5EE408AF1EE10FA44BFFAEE040AC8EE208ADFEDD20AFA
:2045E00080EE200ABCEEC00A10EE100AFFF756FE00EE100AB8EE400A88EE800ADFF8AC0AC8
:20460000B0F9DA0305900A21C0EBC00090FBF1F000EE900AB8EEE08AB4EE408AF1EE10FA90
:2046200040F1F2830598C00000EE900AF8EEE08AB4EE680AF1EE10FA40F1E68304980399D0
:20464000029B049D039EDDF808C0B0F90000B1F90010B4F90020B3F90030B5F90250B6F923
:204660000260B4F90270BCF902E0DDF810C0DDF80880CDF818E0A5EB070ADDF80CE0BCF94C
:2046800004C0BEF90490B4F904E0B8F90480CDF800A0A6EB070BAEEB0C0A0AFB0BFADDF8AF
:2046A00000B0A9EB0E0909FB0BAA00EE10AAA2EB000A891AACEB0E0C0AFB09F901FB0C9CA8
:2046C00001EE902AB8EEC00A00EE90CA7D1BF8EEE11A02EE107AF8EEE00A801AF61B69435F
:2046E00061EE801AB8EEC22A06FB001042EE201A01EE100A02EE10EAB8EEC11AB8EEC22ABE
:2047000006A842EE011A02EE103AB0F90000B8EEC22A22EE002A02EE900AF8EEE22A20EE67
:20472000000A02EEA02A00EEA00A02EE908A01EE010ADFED740AF8EEE22AB4EE600AF1EEF2
:20474000611A02EE812AF1EE10FA32EE219A13D5B5EE409AF1EE10FABCEEC00A48BFB1EE17
:20476000499A10EE100AFFF799FD00EE100AB8EE400A89EE000A1CE0F2EE040AC9EE209ADE
:20478000F5EE409AF1EE10FA44BFFAEE040AC9EE209ADFED650A80EE200ABCEEC00A10EEC4
:2047A000100AFFF77BFD00EE100AB8EE400A89EE800AB4EE408AF1EE10FA44BFB4EE680A0C
:2047C000F1EE10FA40F120830498029A039B049D029FDDF80CC0B0F90000B4F90010B2F952
:2047E0000020B3F90030B5F90250B4F90260B7F90270BCF902E0DDF810C0DDF80C80CDF82A
:2048000018E0A5EB070ADDF808E0BCF904C0B4F90490BEF904E0B8F90480CDF800A0A6EBC2
:20482000070BAEEB0C0A0AFB0BFADDF800B0A9EB0E0909FB0BAA00EE10AAA2EB000A891AE2
:20484000ACEB0E0C0AFB09F901FB0C9C01EE902AB8EEC00A00EE90CA7D1BF8EEE11A02EE32
:20486000107AF8EEE00A801AF61B694361EE801AB8EEC22A06FB001042EE201A01EE100A88
:2048800002EE10EAB8EEC11AB8EEC22A06A842EE011A02EE103AB0F90000B8EEC22A22EE9D
:2048A000002A02EE900AF8EEE22A20EE000A02EEA02A00EEA00A02EE908A01EE010ADFED18
:2048C000110AF8EEE22AB4EE600AF1EE611A02EE812AF1EE10FA32EE219A15D5B5EE409A9F
:2048E000F1EE10FABCEEC00A48BFB1EE499A10EE100AFFF7D3FC00EE100AB8EE400A89EE86
:20490000000A21E00000804FF2EE040AC9EE209AF5EE409AF1EE10FA44BFFAEE040AC9EE08
:20492000209ADFED010A01E00000C84280EE200ABCEEC00A10EE100AFFF7B0FC00EE100A2D
:20494000B8EE400A89EE800AB4EE408AF1EE10FA44BFB4EE680AF1EE10FA40F1558203986E
:204960000299049B039D029EDDF810C0B0F90000B1F90010B4F90020B3F90030B5F902500C
:20498000B6F90260B4F90270BCF902E0DDF80CC0DDF81080CDF818E0A5EB070ADDF808E02F
:2049A000BCF904C0BEF90490B4F904E0B8F90480CDF800A0A6EB070BAEEB0C0A0AFB0BFAAC
:2049C000DDF800B0A9EB0E0909FB0BAA00EE10AAA2EB000A891AACEB0E0C0AFB09F901FB58
:2049E0000C9C01EE902AB8EEC00A00EE90CA7D1BF8EEE11A02EE107AF8EEE00A801AF61B40
:204A0000694361EE801AB8EEC22A06FB001042EE201A01EE100A02EE10EAB8EEC11AB8EEDA
:204A2000C22A06A842EE011A02EE103AB0F90000B8EEC22A22EE002A02EE900AF8EEE22A66
:204A400020EE000A02EEA02A00EEA00A02EE908A01EE010ADFED110AF8EEE22AB4EE600A03
:204A6000F1EE611A02EE812AF1EE10FA32EE219A16D5B5EE409AF1EE10FABCEEC00A48BFB1
:204A8000B1EE499A10EE100AFFF708FC00EE100AB8EE400A89EE000A22E000BF0000804F79
:204AA000F2EE040AC9EE209AF5EE409AF1EE10FA44BFFAEE040AC9EE209ADFED010A01E0CF
:204AC0000000C84280EE200ABCEEC00A10EE100AFFF7E4FB00EE100AB8EE400A89EE800ADA
:204AE000B4EE408AF1EE10FA44BFB4EE680AF1EE10FA40F1898104980399029A049D039E10
:204B0000029FB0F90000B1F90010B2F90020B4F90030B5F90250B6F902607F88DDF80CE010
:204B2000DDF80880ADF8187015FB05F9B4F802C0BDF91870ADF802C010FB0099BDF902C0AE
:204B4000CDF820C0DDF810C0B8F904A0BCF904C0BEF904E0B4F80480ADF800801CFB0C9991
:204B6000BDF90080CDF81C80A0EB01084FEA480800EE108AA5EB06084FEA480800EE908ACA
:204B8000ACEB0E08B8EEE06A4FEA480800EE908AA1EB02084FEA480801EE108AA6EB07089F
:204BA0004FEA480801EE908AAEEB0A08F8EEE16A4FEA480801EE908AA2EB03084FEA4808D4
:204BC00002EE108ADDF82080A7EB08084FEA480802EE908ADDF81C80AAEB0808B8EEE27A89
:204BE0004FEA480802EE908A11FB01F8A9EB080906FB16990EFB1E9903EE109A16FB0688CE
:204C000012FB02F91EFB0E8817FB07F7A8EB0908A8EB07080AFB1A8803EE908A4F441AFB2D
:204C20000A77DDF8208003FB137708FB1877F8EEE11ADDF81C80B8EEC11AF8EEE22A26EE8B
:204C4000215AB8EEC00AF8EEE00A08FB187766EEA28A26EE016AB8EEC22A04EE107A06EE06
:204C6000E05A47EE618A61EE205A20EE219A06EEC06AF8EEC44A61EE227A22EE218A79EE29
:204C8000659A66EE826A21EE077A38EE674A69EEA89A37EE66AA45EE049A75EEC95A76EEE5
:204CA000C76A26EE049A25EEA67A77EEC87AF5EE409A05EE8A9A06EE277AF1EE10FA1FBF07
:204CC000B5EE409AF1EE10FAB5EE407AF1EE10FAB8EEC33AF8EEE33A00F0968063EE217A90
:204CE00043EEE07A64EEA11A67EEA80A43EEE21A45EE210AC0EEA90AFDEEE00A10EE907A4C
:204D000064EE810A23EE011A03EEC01A43EEC20A21EE040ADFF89483DFF89093DFF88CB3A7
:204D2000A8F8DC7305EEA00A80EE090ABDEEC00A10EE108A21EE260A06EE200A80EE070A7D
:204D4000A9F8DE83BDEEC00A10EE109AABF8E093C01BA5EB08050FFA80FB2DB20895ACEB0F
:204D6000090000B20790089D0598DDF81CC06D431BFB0B554043E34600010BFB0C5C604508
:204D8000A2BF192590FBF5F5AC453DDBA6EB0806C91B36B209B2AEEB090C16FB06F60FFA0C
:204DA0008CFC11FB01611CFB0C118842A8BFA9422ADBD11BBDF81820A2EB080212B209B2B9
:204DC000AAEB090612FB02F236B211FB012116FB06118842A8BFA94216DBBDF80220D91B18
:204DE000A2EB0802BDF8003012B209B2A3EB090312FB02F21BB211FB012113FB0311884236
:204E0000A8BFA942BFF61AAB9DF80500401C8DF805000298103002909DF805003228FFF6F1
:204E2000FFAA9DF80400401C8DF804000398103003909DF804003228FFF6DEAA9DF80600D2
:204E4000401C8DF806000498103004909DF806003228FFF6BDAA9548B0F8E203652818DAC1
:204E6000924900200AB0A1F8DC03A1F8DE03A1F8E00381F8D803A1F8E203C1F8E403C1F8E4
:204E8000E803C1F8EC03C860BDEC068B01B0BDE8F08F8649854AD1F8E41391FBF0F1A2F8E3
:204EA000DC13D2F8E81391FBF0F1A2F8DE13D2F8EC1391FBF0F0A2F8E0030AB0BDEC068BA0
:204EC00001B0BDE8F08FDFF8440E90EDD30AFA21A0F8DA13BDEEC00A0021A0F8DC13A0F825
:204EE000DE13A0F8E01380F8D813A0F8E213C0F8E413C0F8E813C0F8EC13C16080EDFC0A99
:204F00007047DFF8083EA3F85003A3F85213A3F854237047DFF8F43DA3F85603A3F8581304
:204F20000020A3F85A23C3F85C03704730B55F4C94F8D9030025002881B04FD094F8D8036C
:204F40000125322819D0D4E9C8010122DFF8983E08F062FE09D9D4E9CA0108F05DFE04D9A0
:204F6000D4E9CC0108F058FE03D804F55470FFF7D1F994F8D803322830D1B4F9E023B4F9E2
:204F80005A33B4F9DC03B4F9DE13A4F83C23A4F83A139A1AB4F95833A4F83803591AB4F993
:204FA0005633181A494300FB001002FB020008F04BFE41EC100B08F067FD51EC100B08F06B
:204FC000E3FDC4F84C03002094EDD30AC4F8F403BDEEC00A84EDFC0A84F8D903B4F93C0385
:204FE00000EE100AB4F93A03F8EEC02A00EE100AB4F93803B8EEC02A00EE100AB4F95A035D
:20500000F8EEC01A00EE100AB4F95803B8EEC01A00EE100AB4F95603F8EEC00A00EE100A7A
:20502000B8EEC00A00F044F8832812D3D4F8F40378B984F8D803A4F8E203C4F8E403C4F819
:20504000E803C4F8EC03E0600120C4F8F40384F8D90300F0E5F8284601B030BDDFF8AC0CE6
:2050600090F8D803322801D10120704700207047DFF8980C002180F8D813A0F8E213C0F8AE
:20508000E413C0F8E813C0F8EC13C1600121C0F8F41380F8D9137047A086010040420F00DA
:2050A0008096980000E1F50500CA9A3BF00E00202DE97043DFF8544C2DED0A8BD4F8F803F4
:2050C0000B28BCBF401CC4F8F803B0EE408AF0EE608AB0EE419AF0EE619AB0EE42AAF0EE25
:2050E00062AA04F558750A26B1EE04BA95ED000A78EE40BA95ED010A38EEC0CA95ED020A9A
:2051000079EE40CA2BEEAB0A0CEE0C0A0CEEAC0A10EE100A08F08CFC41EC100B08F0B4FC08
:2051200051EC100B08F030FD00EE100AB4EE4B0AF1EE10FA18D40C35761ED7D1D4F8FC03D6
:2051400000EB400104EB8101401C81EDD88AC1EDD98A81EDDA9A0A2190FBF1F101EB81028C
:20516000A0EB4200C4F8FC03D4F8F8030A284DDB9FED2A0A04F558755FF00A06D5ED000AD5
:2051800070EEE9BAD5ED010A30EECACAD5ED020A70EEEACA10EE100A08F04AFC2BEEAB0A8B
:2051A0000CEE0C0A80460CEEAC0A894610EE100A08F03EFC41EC100B08F066FC51EC100B56
:2051C0000022DFF8183E08F057FD42464B4608F07FFE08F0D9FC0C35761E00EE100ACDD15E
:2051E000D4EDFC0AF8EEE00A80EE201A80EE800AB4EE410AF1EE10FA58BFB0EE401ABDEEE8
:20520000C10A10EE100A6421484300D16420BDEC0A8BBDE870830000F60E0020000000004C
:205220002DE9F04381B0DFF8B88D2DED088BD8F8E0610A2E31DADFF8D45AB5F9500308F0D9
:2052400003FD08EBC60208EBC607C2E90001B5F9520308F0F9FCC7E91401B5F9540308F075
:20526000F3FCC7E92801B5F9560308F0EDFCC7E93C01B5F9580308F0E7FCC7E95001B5F9FE
:205280005A0308F0E1FCC7E96401701CC8F8E001BDEC088B01B0BDE8F0839FEDD89BB0EEF8
:2052A000490AF0EE690AB0EE498AF0EE698A45465FF00506D5E9002351EC100B08F008FEEC
:2052C000D5E9022308F004FE1035761E41EC100BF0D10022DFF8043D08F0CEFC41EC1A0BC1
:2052E00045460524D5E9000153EC1A2B08F064FE41EC1B0BD5E9020153EC1A2B08F05CFE73
:2053000041EC100B53EC102B08F016FF0022DFF8CC3C08F0B1FC06460F4651EC1B0B53ECD5
:205320001B2B08F009FF0022DFF8B03C08F0A4FC53EC182B08F0CCFD32463B4608F0C8FDB1
:205340001035641E41EC180BCCD1DFF8C059B0EE480AF0EE680A08F097FB85EDC80BB0EEFC
:20536000490AF0EE690AB0EE498AF0EE698A08F150060527D6E9002351EC100B08F0A8FDF5
:20538000D6E9022308F0A4FD10367F1E41EC100BF0D10022DFF8443C08F06EFC41EC1A0B77
:2053A00008F150065FF00507D6E9000153EC1A2B08F002FE41EC1B0BD6E9020153EC1A2B6E
:2053C00008F0FAFD41EC100B53EC102B08F0B4FE0022DFF8083C08F04FFC0446894653EC9A
:2053E0001B2B51EC1B0B08F0A7FE0022DFF8EC3B08F042FC53EC182B08F06AFD22464B4637
:2054000008F066FD10367F1E41EC180BCCD1B0EE480AF0EE680A08F037FB85EDCA0BB0EE12
:20542000498AF0EE698A08F1A0060527D6E9002351EC190B08F04CFDD6E9022308F048FD58
:2054400010367F1E41EC190BF0D10022DFF88C3B08F012FC41EC190B08F1A0065FF0050746
:20546000D6E9000153EC192B08F0A6FD41EC1A0BD6E9020153EC192B08F09EFD41EC100BDC
:2054800053EC102B08F058FE0022DFF8503B08F0F3FB0446894653EC1A2B51EC1A0B08F0E3
:2054A0004BFE0022DFF8343B08F0E6FB53EC182B08F00EFD22464B4608F00AFD10367F1E02
:2054C00041EC180BCCD1B0EE480AF0EE680A08F0DBFA85EDCC0B404608F1F0015FF00302C5
:2054E00090ED020B80ED000B90ED160B80ED140B90ED2A0B80ED280B91ED020B81ED000B2A
:2055000091ED160B81ED140B91ED2A0B81ED280B90ED040B80ED020B90ED180B80ED160BD7
:2055200090ED2C0B80ED2A0B91ED040B81ED020B91ED180B81ED160B91ED2C0B81ED2A0B85
:2055400090ED060B80ED040B90ED1A0B80ED180B90ED2E0B80ED2C0B183091ED060B81ED70
:20556000040B91ED1A0B81ED180B91ED2E0B81ED2C0B1831521EB3D1B5F9500308F064FBF7
:20558000C8E91201B5F9520308F05EFBC8E92601B5F9540308F058FBC8E93A01B5F95603D8
:2055A00008F052FBC8E94E01B5F9580308F04CFBC8E96201B5F95A0308F046FBC8E97601DE
:2055C000BDEC088B01B0BDE8F083DFF84017B1F838230280B1F83A234280B1F83C23828040
:2055E000D1F840238260D1F84423C260D1F848230261D1F84C134161704700000000000033
:2056000000000000DFF804170288A1F838234288A1F83A238288A1F83C238268C1F8402352
:20562000C268C1F844230269C1F848234269C1F84C23B0F90230B0F904200088A1F8DC0316
:20564000A1F8DE333220A1F8E02381F8D803704710B52DED0C8BF0EE608A0446B0EE408AB7
:20566000B0EE419A18EE900A08F0E2F941EC1A0B21F0004141EC1D0B19EE100A08F0D8F95B
:2056800041EC1B0B18EE100A08F0D2F941EC1C0B53EC1C2B51EC1D0B23F0004308F01EFE2B
:2056A0005FD251EC1B0B53EC1C2B21F0004123F0004308F013FE54D251EC1A0BB5EE408A2A
:2056C00021F000419FEDE1DBF1EE10FA41EC100B53EC102B51EC1D0B21DD08F02DFD53ECC1
:2056E0001C2B23F0004308F0F9FD80F0DB8051EC1B0B21F0004141EC100B53EC102B51ECA0
:205700001D0B08F019FD53EC1C2B23F0004308F0E5FD80F0C780BDEC0C8B042010BD08F0BD
:205720000BFD53EC1C2B23F0004308F0D7FD80F0B98051EC1B0B21F0004141EC100B53ECD4
:20574000102B51EC1D0B08F0F7FC53EC1C2B23F0004308F0C3FD80F0A580BDEC0C8B052030
:2057600010BD51EC1B0B53EC1A2B21F0004123F0004308F0B3FD9FEDB5DB4ED251EC1C0B85
:20578000F5EE408A21F00041F1EE10FA41EC100B53EC102B51EC1D0B1FDD08F0CDFC53ECFE
:2057A0001A2B23F0004308F099FD7BD251EC1B0B21F0004141EC100B53EC102B51EC1D0B97
:2057C00008F0BAFC53EC1A2B23F0004308F086FD68D2BDEC0C8B012010BD08F0ADFC53EC7E
:2057E0001A2B23F0004308F079FD5BD251EC1B0B21F0004141EC100B53EC102B51EC1D0B97
:2058000008F09AFC53EC1A2B23F0004308F066FD48D2BDEC0C8B032010BDB5EE409AF1EE1F
:2058200010FA51EC1D0B1FDD08F086FC53EC1B2B23F0004308F052FD34D251EC1C0B21F0E6
:20584000004141EC100B53EC102B51EC1D0B08F073FC53EC1B2B23F0004308F03FFD21D277
:20586000BDEC0C8B002010BD08F066FC53EC1B2B23F0004308F032FD14D251EC1C0B21F044
:20588000004141EC100B53EC102B51EC1D0B08F053FC53EC1B2B23F0004308F01FFD38BF73
:2058A000022000D32046BDEC0C8B10BD30B581B0DFF8D85B2DED068B0C46D5F8841E95F867
:2058C000223B7BB990ED009AD0ED019A90ED02AAD0ED03AA92ED021AD2ED010A92ED000A47
:2058E000084612E090ED020A90ED019AD0ED009AD0ED03AAD2ED000AB1EE40AA92ED020A29
:20590000B1EE401A084692ED010AFFF7A1FEC5F8840E052800F28280DFE800F07E03773AC8
:20592000777E29EE090A09EEE90A0AEE4A0A0AEEAA0A10EE100A08F07BF829EE290A0AEEA1
:205940002A0AF0EE000A41EC110B20EE200AB0EE418AF0EE618A10EE100A08F069F841ECDA
:20596000100BB0EE481AF0EE681A08F03FFD53EC102B0020DFF8181B08F0DEFBDFF8142BED
:20598000DFF8143B08F078F9DFF8103B002235E029EE090A09EEE90A0AEE4A0A0AEEAA0A13
:2059A00010EE100A08F044F829EE290A0AEE2A0AF0EE000A41EC110B20EE200AB0EE418A53
:2059C000F0EE618A10EE100A08F032F841EC100BB0EE481AF0EE681A08F008FD53EC102BA5
:2059E0000020DFF8AC1A08F0A7FBDFF8A82ADFF8A83A08F041F9DFF8A83A002208F068FA87
:205A000008F0C2F808EE100A08E094ED000ADFEDC00A30EE208A01E094ED008A9FEDBD0AB4
:205A2000B4EE408AF1EE10FAA4BFDFEDEB0A38EE208AB5EE408AF1EE10FA48BF38EE008A10
:205A4000B0EE480ABDEC068B01B030BDB81E85EB51B8F63F30B5DFF8344A0020C4F89C0E3A
:205A6000C4F8A00E84F8D60884F8D50884F8D40885B004F6F45004F5606104F60C620323F6
:205A80005FF0000500F8015B01F8015B02F8015B00F8015B01F8015B02F8015B00F8015B60
:205AA00001F8015B5B1E02F8015BEBD10120ADF80C00009504F62461DFF8E80901904FF088
:205AC000FF400290C4F8780E04F56362DFF8D8090290C4F87C0E0323DFF8D0099DED000BFA
:205AE00080F8CE5880F8CD5880F8CC5884ED000B04F6186000F8015B01F8015B02F8015BE2
:205B000000F8015B01F8015B02F8015B00F8015B01F8015B5B1E02F8015BEBD104F52D61CB
:205B200004F53F6001F0C2FD04F6243104F6E84002F034FF04F6686204F6646104F5666045
:205B400001F01EFC04F6686204F6646104F5666002F08EFD04F624309FEDCA0A80ED000A56
:205B600004F62830F7EE080AC0ED000A04F630309FEDC51A80ED001A04F66430DFEDC31AA2
:205B8000C0ED001A04F668309FEDC12A80ED002A04F66C30DFEDBF2AC0ED002A022084F8DE
:205BA000750B9FEDE43A012084F8450B84F8765B04F6703084F8465B80ED003A012084F886
:205BC000470B84F8480B84F8225B04F6D02005B080ED000A04F6D420C0ED000A04F6DC20FA
:205BE00080ED001A04F61030C0ED001A04F6143080ED002A04F61830C0ED002A022084F891
:205C0000210B84F8F10A04F61C3080ED003A012084F8F20A84F8F30A84F8F40A30BD10B5B6
:205C2000002871D0DFF864480168C4F8241B04F668624168C4F8281B8168C4F8301B01694E
:205C4000C4F8641B4169C4F8681B8169C4F86C1B90F8281084F8751B90F8351084F8761B4D
:205C60000168C4F8D01A4168C4F8D41A8168C4F8DC1A017B84F8F11AC169C4F8101B016AA8
:205C8000C4F8141B416AC4F8181B90F8281084F8211B90F8351084F8221B816BC4F8801E3B
:205CA00090F8291084F8601E90F82D1084F8641E90F8311084F8681E90F82A1084F8611EDE
:205CC00090F82E1084F8651E90F8321084F8691E90F82B1084F8621E90F82F1084F8661EAC
:205CE00004F6646190F8330084F86A0E04F5666001F046FB04F6686204F6646104F5666003
:205D0000BDE8104002F0B4BC10BD0000F00E0020000034430000B443002855D0DFF86C172C
:205D2000D1F8D02A0260D1F8D42A4260D1F8DC2A826091F8F12A0273D1F8642B0261D1F887
:205D4000682B4261D1F86C2B8261D1F8102BC261D1F8142B0262D1F8182B426291F8212BB2
:205D600080F8282091F8222B80F83520D1F8802E826391F8602E80F8292091F8642E80F8F9
:205D80002D2091F8682E80F8312091F8612E80F82A2091F8652E80F82E2091F8692E80F87A
:205DA000322091F8622E80F82B2091F8662E80F82F2091F86A1E80F83310002180F82C1030
:205DC00080F8301080F834107047DFF8C006D0F89C0EC0B2704700000000B4C3DFF8AC0660
:205DE000D0F8A00EC0B2704700C06240DFF89C1684B0C1F89C0EF0B10120ADF80C00DFF838
:205E0000A4060190002000904FF0FF400290C1F8780E9DED000BDFF890060290C1F87C0E71
:205E200081ED000B0021DFF8840680F8CE1880F8CD1880F8CC1804B07047DFF8501684B074
:205E4000C1F8A00EE0B10120ADF80C00DFF854060190002000904FF0FF400290C1F8780EB7
:205E60009DED000BDFF840060290C1F87C0E81ED000B002081F8D60881F8D50881F8D40800
:205E800004B070476666663F83C02A3F17B7513A3480373A3480373B10B504462DED048B1E
:205EA00020689FEDC28B07F0C3FD53EC182B08F043F90022DFF8D83507F0DEFE07F064FEE2
:205EC00009EE100A84ED009A606807F0B1FD53EC182B08F031F9DFF8B835002207F0CCFEEE
:205EE00007F052FE6060A06807F0A2FD53EC182B08F022F9DFF89835002207F0BDFE07F0F9
:205F000043FEA060DFF8840580ED2A9A6168C0F8AC10A168C0F8B010DFF890052168C0F844
:205F2000A0106168C0F8A410A168C0F8A810BDEC048B10BDCDCCCC3D10B50446DFF84C0525
:205F40002DED028BD0F8A01E41B1D0F8A8102160D0F8AC106160D0F8B00009E0DFF84C0553
:205F6000D0F8A0102160D0F8A4106160D0F8A800A0609FEDE48B206807F05AFD53EC182B28
:205F800008F0DAF8DFF80C25DFF80C3507F074FE07F0FAFD2060606807F04AFD53EC182BB8
:205FA00008F0CAF8DFF8EC24DFF8EC3407F064FE07F0EAFD6060A06807F03AFD53EC182B9A
:205FC00008F0BAF8DFF8CC24DFF8CC3407F054FE07F0DAFDA060BDEC028B10BD00002440FB
:205FE000E00B012070B504462DED028B084684B0DFF89864C168C6F8081C15000168C6F8E3
:020000040800F2
:20600000FC1BB0EE408A8169C6F8141C08BF00ADC168C6F8001D0168C6F8F41C8169C6F8D2
:206020000C1D0169C6F80C1C4168C6F8001CC169C6F8181C0169C6F8041D4168C6F8F81C84
:20604000C169C6F8101D4169C6F8101C8168C6F8041C016AC6F81C1C4169C6F8081D8168F9
:20606000C6F8FC1C016AC6F8141DD6F8801E81B196F8201B96F8742B01F0010102F0010274
:20608000114306D000F042F9012804BF0020C6F8800ED6F89C0E70B196F8740BC0070AD507
:2060A0002B4606F62432B0EE480A06F6E84106F6D41002F001F8D6F8A00E88B196F8200BCF
:2060C000C0070DD50120C6F8A40E2B4606F52D62B0EE480A06F53F6106F6D80000F040FEFE
:2060E000D6F8EC09606404F15402D6F8F008E06004F13801D6F8F009A064D6F8F408206184
:20610000D6F8F409E064D6F8F8086061D6F8F8092065D6F8FC08A061D6F8E009A063D6F832
:20612000680A6065D6F8740A2066D6F8E4082060D6F86C09E061D6F87809A062D6F8E4098C
:20614000E063D6F86C0AA065D6F8780A6066D6F8E8086060D6F870092062D6F87C09E062C1
:20616000D6F8E8092064D6F8700AE065D6F87C0AA066D6F8EC08A060D6F874096062D6F858
:206180008009206304F14400FFF790FB84ED1B0A04F11C02214604F10C00FFF787FB84ED3F
:2061A0000D0A04B0BDEC028B70BD00006F1283C0CA21094030B581B004462DED028BB34DB2
:2061C000C868C5F8080CB0EE408A0868C5F8FC0B8869C5F8140CC868C5F8000D0868C5F82D
:2061E000F40C8869C5F80C0D0869C5F80C0C4868C5F8000CC869C5F8180C0869C5F8040DC8
:206200004868C5F8F80CC869C5F8100D4869C5F8100C8868C5F8040C086AC5F81C0C4869B3
:20622000C5F8080D8868C5F8FC0C086AC5F8140DD5F8A00E38B105F52D6205F53F6105F605
:20624000D80000F059F9D5F89C0E48B105F62432B0EE480A05F6E84105F6D41001F0F4FA91
:20626000D5F8EC096064D5F8F008E060D5F8F009A064D5F8F4082061D5F8F409E064D5F8A4
:20628000F8086061D5F8F8092065D5F8FC08A061D5F8E009A063D5F8680A6065D5F8740A10
:2062A0002066D5F8E4082060D5F86C09E061D5F87809A062D5F8E409E063D5F86C0AA06507
:2062C000D5F8780A6066D5F8E8086060D5F870092062D5F87C09E062D5F8E8092064D5F8C1
:2062E000700AE065D5F87C0AA066D5F8EC08A060D5F874096062D5F880092063BDEC028BAA
:2063000001B030BD000000000080664030B45F48D0F8941E012905DB491EC0F8941E0020B9
:2063200030BC7047D0F8881ED0F8984ED0F8A02E00EE101AD0F8901E00EE901A611C9AB318
:20634000D0F88C3E02EE103A01EE904AD0F80C3401EE101AF8EEE11AB8EEC11A21EE822A6A
:2063600002EE903A82EE012AC2EE812A00F68C6332EE222A83ED002A21EE800AD0F81034DD
:2063800002EE103AD0F8143461EEA00A80EE010A82EE012AC0EE810A01EE903A81EE811AAA
:2063A00030EE020A70EE810AD0F89C3E03B301EE904A3E4CD4F80854D4F80C4401EE101AC2
:2063C000F8EEE11AB8EEC11A21EE800A02EE105A61EEA00A80EE010A82EE012AC0EE810A22
:2063E00001EE904A81EE811A30EE020A70EE810A00F69064B1F5FA7FC4ED000A00F6886411
:20640000C0F8981E84ED000A89D1DAB1F6EE000A00F6143120EE200A81ED000AD0F8901E5F
:2064200000EE101A00F6183120EE200A81ED000AD0F88C1E00EE101A00F6103120EE200A5C
:2064400081ED000AABB1F6EE000AD0F8881E00EE101A00F6683120EE200A81ED000AD0F8ED
:20646000901E00EE101A00F66C3120EE200A81ED000A0021C0F88C1EC0F8881EC0F8901ECC
:20648000C0F8981E012030BC7047000000000020008066406F1283C0CA210940008056C0F6
:2064A000008056400000F8FF000080FFF0120020F0B589B00FF21C02F8CA00A9F8C178CACB
:2064C00078C100A907F09CFF00A807F0BBFF09B0F0BD00005354206F73784D6F74696F6EF2
:2064E00046582078392F78362076312E302E370000000000000000002DE9F04F81B00D46ED
:206500002DED0A8BA2B016460FF63401DFF89C8DB1E88C10044603A80FF63401A0E88C105C
:20652000B1E88C100AA8B0EE408AA0E88C1096F851008DF8080005F1240205F1180090EDD5
:20654000020AD0ED010A90ED001A98F9F40D01EE900AF8EEE11A98F9F50D61EE819A01EEE8
:20656000900AF8EEE11A98F9F60D41EEA09A01EE900AF8EEE11A98F9F70D41EE809A01EE6C
:20658000900AF8EEE11A98F9F80D21EE819A01EE900AF8EEE11A98F9F90D01EEA09A01EEA7
:2065A000900AF8EEE11A98F9FA0D01EE809A01EE900AF8EEE11A98F9FB0D21EE81AA01EE93
:2065C000100AB8EEC11A98F9FC0D01EE20AA00EE900AF8EEE00A00EE80AA08F60C6107A843
:2065E00000F06CFE05F10C0090ED020AD0ED010A90ED001A98F9000E01EE900AF8EEE11A4E
:2066000098F9010E61EE818A01EE900AF8EEE11A98F9020E41EEA08A01EE900AF8EEE11AB2
:2066200098F9030E41EE808A01EE900AF8EEE11A98F9040E61EE81AA01EE900AF8EEE11A8E
:2066400098F9050E41EEA0AA01EE900AF8EEE11A98F9060E41EE80AA01EE900AF8EEE11A4B
:2066600098F9070E21EE811A01EE900AF8EEE11A98F9080E01EEA01A00EE900AF8EEE00AB8
:2066800007AF00EE801A9DED070AD7ED010A98F8700EF1EE600AB1EE400AB1EE499AF1EEB1
:2066A000699ACDED070A87ED010AB1EE41BA38B329EE090A09EEA90A0AEE0A0A10EE100A10
:2066C00007F0B6F941EC100B07F0DEF951EC100B07F05AFA00EE100A89EE009AC9EE809A71
:2066E0008AEE00AA2AEEAA0A08EEA80A0BEE0B0A10EE100A07F09CF941EC100B07F0C4F956
:2067000096F8510010B9012086F8510096F8290096F85110401CC0B290FBF1F201FB1200F1
:2067200086F8290000EE101AB8EE400ADDED070A80EE800AD5ED0C0A30EE200A85ED0C0A2F
:2067400096F85100D7ED010A00EE100AB8EE400A80EE800AD5ED0D0A30EE200A85ED0D0AF1
:2067600096F85100D7ED020A00EE100AB8EE400A80EE800AD5ED0E0A30EE200A85ED0E0ACE
:2067800096F8240060B10AA8009005F17803B0EE480A05F16C0207A905F1780006F034FEE9
:2067A00005F19800009004F1180BCDF804B005F1E80305F1D80205F1B8010AA806F0BCFE68
:2067C00096F8340001280CD1DFF8EC1AB1E88C100EA8A0E88C100EA88EC8ABE88E00ABF13C
:2067E000100B96F852A09BED000AB1EE400A8BED000A04F1A0079BED010AB1EE400A8BED71
:20680000010A04F194089BED020AB1EE400A04F10C098BED020A0EA95846FDF7D3FCBAF10E
:20682000000F0ED10EA88169C8F80010C169C8F804104946006AC8F80800584606F06BFB41
:20684000A5E0BAF1010F40F0A2800EA8C269C8F800208269C8F8042090ED080AB1EE400A9E
:2068600088ED020A40F093809BED020ADBED00AADBED01BA9BED03CAB1EE40BA2AEEAA0A11
:20688000F0EE000A60EE20CA2BEE0B0AB7EE001A00EE601A31EE6C0A10EE100A07F0C8F81F
:2068A0002BEE0C0A0AEEAB0AF0EE000A41EC110B20EE200AB0EE418AF0EE618A10EE100A49
:2068C00007F0B6F841EC100BB0EE481AF0EE681A07F08CFD51EC100B81F0004107F054F99D
:2068E000B7EE000AC9F8000030EE6C0A6BEEAB0AB0EE001A00EEC10A10EE100A07F098F876
:206900002AEE8B0A0BEE8C0AF0EE000A41EC110B20EE200AB0EE418AF0EE618A10EE100A88
:2069200007F086F841EC100BB0EE481AF0EE681A07F05CFD51EC100B81F0004107F024F9CC
:206940002AEE8C0AC9F804000BEE6B0AF0EE000A20EE200A10EE100A07F06AF841EC100B7D
:2069600007F01CFE51EC100B81F0004107F00CF9C9F8080099ED000AB5EE400AF1EE10FAD1
:2069800005D5DFEDEC0A30EE200A89ED000A9FEDEA0AD9ED000A60EE800AC9ED000ABAF100
:2069A000000FD9ED010A60EE800AC9ED010AD9ED020A20EE800A89ED020A10D198ED000A02
:2069C00030EE490A87ED000A98ED010A30EE690A87ED010A98ED020A30EE4A0A12E0BAF188
:2069E000010F11D198ED000A30EE690A87ED000A98ED010A30EE490A87ED010A98ED020AF6
:206A000030EE0A0A87ED020A002086F8260096F85000810708D496F829109DF8082091FBAE
:206A2000F2F302FB131139B105F1A80205F1A8010AA806F0D5FA5EE140F0010086F8500072
:206A400095ED220A85ED260AD5F88C00C5F89C00D5F89000C5F8A000D5F89400C5F8A400B8
:206A6000DDED0A0A9DED0A1AF4EE410AF1EE10FA02BFD5ED2A0AF4EE600AF1EE10FA40F058
:206A80005181D5ED320AF4EE600AF1EE10FA04BFB4EE400AF1EE10FA40F0448105F18808DE
:206AA00005F1C8070EAA05F1A8010AA806F098FA97ED000AD7ED010A97ED021AD7ED031AA2
:206AC00098ED032A8DED122A12A8D8ED022AB1EE623A80ED043A12A9D8ED013AC0ED083A13
:206AE000042298ED004AC0ED012AF1EE444AC0ED0C4AC0ED094AF1EE634A80ED052AC0ED84
:206B00000D4AC0ED024A80ED064A80ED0A2A80ED0E3A80ED034AC0ED073AC0ED0B2A80ED1B
:206B20000F2A03A8002303609FED844AD1ED003A91ED013A91ED032AD1ED022A00EE234AF0
:206B400000EE834A01EE224A01EE824A80ED004A1031001D521EE6D10EA8D0ED010A90ED2D
:206B6000021AD0ED031A03999DED0E0A9DED034A12A80DF10C088161B1EE444A0399D8EDCE
:206B8000022AD8ED013A80ED0C4A80ED094AB1EE623A98ED032AC160B1EE634A80ED043A41
:206BA000C0ED083AC0ED012A80ED052A80ED0D4A80ED024A80ED0A2A80ED0E3AC0ED073AB1
:206BC000C0ED0B2A80ED0F2A8DED122A03A812A9042203609FED594AD1ED003A91ED013AA8
:206BE00091ED032AD1ED022A00EE234A00EE834A01EE224A01EE824A80ED004A1031001DBF
:206C0000521EE6D19DED030ADDED030A98ED018AD8ED028A98ED039A9FED481A00EE201A46
:206C200008EE081A08EEA81A09EE091A11EE100A06F0FEFE41EC100B06F026FF51EC100BA4
:206C400006F0A2FF00EE100ADDED030AC0EE800ACDED030ADDED031A9DED032AC8EE000A61
:206C600088EE801AF4EE421A89EE000AF1EE10FAC8ED010A88ED021A88ED030A52D10398CB
:206C8000A867C5ED1F0A85ED201A85ED210A05F1D801D5F8A800C5F8B800D5F8AC00C5F8D2
:206CA000BC00D5F8B000C5F8C000D5F8B400C5F8C40096F8510000EE100AB8EE400A3846C7
:206CC00006F08AFCDFF8F005B0E88C1012A91038A1E88C1012A9B1E8885005F1A8020EA98D
:206CE000A2E88850B0E88C10A1E88C100EA805F1E801ACC8ACC196F8520001280BD1E06935
:206D000094ED060AD4ED080AA06184ED070AB1EE600A84ED080A22B00020BDEC0A8B01B01F
:206D2000BDE8F08F22B04FF0FF30BDEC0A8B01B0BDE8F08F560EC940E12E654200000000B9
:206D40000000000000000000000000000000803F0000000000000000000000000000803FB5
:206D60002DE9F04104460D462DED0A8B05F11800E0B0DFF8388590ED021AD0ED011A90ED60
:206D8000002A98F9F40DB0EE408A00EE100A98F9F50DB8EEC00A00EE900A20EE020AF8EE3C
:206DA000E00A98F9F60D00EEA10A00EE900AF8EEE00A98F9F70D00EE810A00EE900A98F93D
:206DC000F80DF8EEE00A02EE900A60EE820AF8EEE22A98F9F90D42EEA10A02EE900AF8EEA6
:206DE000E22A98F9FA0D42EE810A02EE900AF8EEE22A98F9FB0D62EE828A02EE100AB8EE13
:206E0000C22A98F9FC0D42EE218A01EE900AF8EEE11A05F1240041EE818A90ED021AD0EDFD
:206E2000011A90ED002A98F90C0E02EE900A98F90D0EF8EEE22A03EE100A62EE822AB8EE10
:206E4000C33A98F90E0E43EE212A03EE100AB8EEC33A98F90F0E43EE012A03EE100A98F9B8
:206E6000100EB8EEC33A03EE900A23EE023AF8EEE33A98F9110E03EEA13A03EE900AF8EE89
:206E8000E33A98F9120E03EE813A03EE900AF8EEE33A98F9130E23EE829A02EE100AB8EE5B
:206EA000C22A98F9140E02EE219A01EE900AF8EEE11A05F10C0001EE819AF1EE609AB1EE9A
:206EC00040AA90ED020AD0ED010A90ED001A98F9030E01EE900AF8EEE11A98F9040E61EEE2
:206EE00081BA01EE900AF8EEE11A98F9050E41EEA0BA01EE900AF8EEE11A98F9000E41EE88
:206F000080BA01EE900AF8EEE11A98F9010E21EE81CA01EE900AF8EEE11A98F9020E01EED9
:206F2000A0CA01EE900AF8EEE11A98F9060E01EE80CA01EE900AF8EEE11A98F9070E21EE80
:206F4000811A01EE900AF8EEE11A98F9080E01EEA01A00EE900AF8EEE00A00EE801A98F86C
:206F6000700E16461F46F1EE43AAB1EE62BAF1EE41CA98B329EEA90A0AEE0A0A08EEA80A98
:206F800010EE100A06F054FD41EC100B06F07CFD51EC100B06F0F8FD00EE100AC9EE809ABF
:206FA0008AEE00AAC8EE808A2BEEAB0A0CEE0C0A0CEEAC0A10EE100A06F03AFD41EC100BD4
:206FC00006F062FD51EC100B06F0DEFD00EE100ACBEE80BA8CEE00CACCEE80CA96F8500012
:206FE00040F0020080F0010086F85000F82296F8510000EE100AA86FC5F88800B8EE400AD3
:20700000E86FC5F88C0020EE088AD5F88000C5F890002946D5F88400C5F8940019A807F0CD
:20702000D5FACDED1F9A8DED20AACDED218ACDED1CBA8DED1DCACDED1ECACDED22AA8DEDD2
:2070400023BA8DED249A002028636863A86308F10800119004F1FA00109004F1F9000F90DC
:2070600004F1F8000E9016A80D9004F158000C9004F1EC000B9004F1E8000A9057A80990B6
:2070800005F1C800089012A8079096F82400069096F82300059096F82200049096F82100C8
:2070A000039096F82000029034A8019028A80090F06C06F0BDFCD6ED126A96ED116AD6ED25
:2070C000102A41EC170BF06AF0EE628AB0EE46AAF0EE66AAB0EE479AF0EE679A06F0A8FC8F
:2070E00041EC150BB0EE497AF0EE697AF0EE6A6AB0EE4A6A96F82600B0EE459AF0EE659A0F
:20710000B0EE46BAF0EE66BAB0EE47AAF0EE67AA06F0A4FD41EC140BB0EE4A7AF0EE6A7A4E
:20712000F0EE6B6AB0EE4B6AB0EE495AF0EE695A3069B0EE449AF0EE649AB0EE45AAF0EE0B
:2071400065AAB0EE46CAF0EE66CAB0EE47BAF0EE67BA06F06DFC41EC130BB0EE4B7AF0EEDB
:207160006B7AF0EE6C6AB0EE4C6AF0EE682AB0EE4A5AF0EE6A5AB0EE494AF0EE694A96ED89
:20718000032AD6ED021A96ED011AD6ED000AB0EE480A25AB1FAA1CA93BA805F07FFF47B1DC
:2071A0001298386012A8416879608168B960C068F86094F8FA0001281CD1002086F8340061
:2071C00088F8700E1298A86712A84168E9678168C5F88010C168C5F884101299C5F8881095
:2071E0004168C5F88C108168C5F89010C068C5F8940007E098F8700E20B10A28BCBF401EFD
:2072000088F8700E16989FED2A8B06F011FC53EC182B06F091FFDFF82C26DFF8703E06F0D2
:207220002BFD06F0B1FCE86616AF786806F000FC53EC182B06F080FFDFF80826DFF84C3E41
:2072400006F01AFD06F0A0FC2867B86806F0F0FB53EC182B06F070FFDFF8E825DFF82C3EF3
:2072600006F00AFD06F090FC686794F8F91098F8710E69B10A28B8BF401C0ADB1699C4F8AD
:2072800088107968C4F88C10B968C4F8901000E0002088F8710E96F8500080F0020086F8D3
:2072A000500060B0BDEC0A8BBDE8F0810000002000000000008066403478000891F9003066
:2072C000D2ED000A92ED011A00EE103AB8EEC00A91F9013020EE200A00EE903AF8EEE00A28
:2072E00091F9023000EE810A00EE903AF8EEE00A92ED021A00EE810A80ED000A91F9033089
:20730000D2ED000A92ED011A00EE103AB8EEC00A91F9043020EE200A00EE903AF8EEE00AE4
:2073200091F9053000EE810A00EE903AF8EEE00A92ED021A00EE810A80ED010A91F9063041
:20734000D2ED000A92ED011A00EE103AB8EEC00A91F9073091F9081020EE200A00EE903ACF
:20736000F8EEE00A00EE810A00EE901AF8EEE00A92ED021A00EE810A80ED020A7047000018
:207380002DE9F041DFF8083D03F6F45403F5606503F60C665FF003074FF0000C04F801CBB5
:2073A00005F801CB06F801CB04F801CB05F801CB06F801CB04F801CB05F801CB7F1E06F8B3
:2073C00001CBEBD10478A4F14205182D0D7838BF2034A5F14206182E167838BF2035A6F123
:2073E0004207182F477838BF2036A7F1420CBCF1180F91F801C038BF2037ACF1420EBEF103
:20740000180F92F801E0807838BF0CF1200CAEF14208B8F1180F38BF0EF1200EA0F142080A
:2074200089789278B8F1180F38BF2030A1F14208B8F1180F38BF2031A2F14208B8F1180F89
:2074400038BF2032E4B2642C4FF0FF381BD0652C0AD06E2C0CD0732C0ED0752C0FD0772CDB
:2074600008BF83F8F48D10E0012483F8F44D0CE0012483F8F74D08E083F8F78D05E00124B7
:2074800083F8FA4D01E083F8FA8DFFB2642F1BD0652F0AD06E2F0CD0732F0ED0752F0FD02E
:2074A000772F08BF83F8F58D10E0012483F8F54D0CE0012483F8F84D08E083F8F88D05E0F2
:2074C000012483F8FB4D01E083F8FB8DC0B264281BD065280AD06E280CD073280ED0752808
:2074E0000FD0772808BF83F8F68D10E0012083F8F60D0CE0012083F8F90D08E083F8F98D43
:2075000005E0012083F8FC0D01E083F8FC8DEDB2642D1BD0652D0AD06E2D0CD0732D0ED080
:20752000752D0FD0772D08BF83F80C8E10E0012083F80C0E0CE0012083F80F0E08E083F89C
:207540000F8E05E0012083F8120E01E083F8128E5FFA8CF064281BD065280AD06E280CD0CC
:2075600073280ED075280FD0772808BF83F80D8E10E0012083F80D0E0CE0012083F8100E4D
:2075800008E083F8108E05E0012083F8130E01E083F8138EC9B264291BD065290AD06E2959
:2075A0000CD073290ED075290FD0772908BF83F80E8E10E0012083F80E0E0CE0012083F84A
:2075C000110E08E083F8118E05E0012083F8140E01E083F8148EF6B2642E1BD0652E0AD057
:2075E0006E2E0CD0732E0ED0752E0FD0772E08BF83F8008E10E0012083F8000E0CE00120F6
:2076000083F8030E08E083F8038E05E0012083F8060E01E083F8068E5FFA8EF064281BD017
:2076200065280AD06E280CD073280ED075280FD0772808BF83F8018E10E0012083F8010E71
:207640000CE0012083F8040E08E083F8048E05E0012083F8070E01E083F8078ED2B2642A02
:2076600020D0652A0BD06E2A0ED0732A11D0752A13D0772A08BF83F8028EBDE8F081012090
:2076800083F8020EBDE8F081012083F8050EBDE8F08183F8058EBDE8F081012083F8080EAE
:2076A000BDE8F08183F8088EBDE8F081F0B4A0B00FF28012F0CA1CAB103AF0C31CABB3E826
:2076C000E01000F1780418ABA4E8E010F0CAF0C318ABB3E8E01000F18804103AA4E8E01010
:2076E000F0CA14AB103AF0C314ABB3E8E01000F1980410ABA4E8E010F0CAF0C310ABB3E843
:20770000E01000F1A804103AA4E8E010F0CA0CAB103AF0C30CABB3E8E01000F1B80408AB06
:20772000A4E8E010F0CAF0C308ABB3E8E01000F1C804103AA4E8E010F0CA04AB103AF0C339
:2077400004ABB3E8E01000F1D80400ABA4E8E010F0CAF0C300F1E803B7EE000AF0C380EDE3
:207760000F0A002202644264826480ED130A02654265826580ED170A026642668266C266AF
:2077800002674267DFF8CC0D0860DFF8CC0D4860DFF8C80D8860DFF8C80DC860DFF8C40D57
:2077A0000861DFF8C40D4861DFF8C00D8861DFF8C00DC861DFF8BC0D8863012081F8200070
:2077C00081F8210081F8220081F8230081F8240081F8252081F8262081F827200A2081F85B
:2077E0002800282081F83C0081ED0B0A012081F83400022081F8290081F8502081F851009C
:2078000081F85220DFF8700D0864DFF8700D4864DFF86C0D8864DFF86C0DC86420B0DFF85E
:20782000680DC0F8A820C0F8AC20C0F8B020F0BC70470000000000000000000000000000E4
:207840000000803F6F1283C02DE9F04F81B00D462DED0A8BA2B016460FF63C01DFF830889E
:20786000B1E88C10044603A80FF63C01A0E88C10B1E88C100AA8B0EE408AA0E88C1096F877
:2078800051008DF8080005F1240205F1180090ED020AD0ED010A90ED001A98F9180E01EE52
:2078A000900AF8EEE11A98F9190E61EE819A01EE900AF8EEE11A98F91A0E41EEA09A01EEB0
:2078C000900AF8EEE11A98F91B0E41EE809A01EE900AF8EEE11A98F91C0E21EE819A01EEEC
:2078E000900AF8EEE11A98F91D0E01EEA09A01EE900AF8EEE11A98F91E0E01EE809A01EE09
:20790000900AF8EEE11A98F91F0E21EE81AA01EE100AB8EEC11A98F9200E01EE20AA00EE04
:20792000900AF8EEE00A00EE80AA08F5636107A800F03CFE05F10C0090ED020AD0ED010AD8
:2079400090ED001A98F9240E01EE900AF8EEE11A98F9250E61EE818A01EE900AF8EEE11ADB
:2079600098F9260E41EEA08A01EE900AF8EEE11A98F9270E41EE808A01EE900AF8EEE11A16
:2079800098F9280E61EE81AA01EE900AF8EEE11A98F9290E41EEA0AA01EE900AF8EEE11A91
:2079A00098F92A0E41EE80AA01EE900AF8EEE11A98F92B0E21EE811A01EE900AF8EEE11A5D
:2079C00098F92C0E01EEA01A00EE900AF8EEE00A07AF00EE801A9DED070AD7ED010A98F8A3
:2079E000720EF1EE600AB1EE400AB1EE499AF1EE699ACDED070A87ED010AB1EE41BA38B3A2
:207A000029EE090A09EEA90A0AEE0A0A10EE100A06F00EF841EC100B06F036F851EC100BAE
:207A200006F0B2F800EE100A89EE009AC9EE809A8AEE00AA2AEEAA0A08EEA80A0BEE0B0A18
:207A400010EE100A05F0F4FF41EC100B06F01CF896F8510010B9012086F8510096F8290085
:207A600096F85110401CC0B290FBF1F201FB120086F8290000EE101AB8EE400ADDED070A43
:207A800080EE800AD5ED0C0A30EE200A85ED0C0A96F85100D7ED010A00EE100AB8EE400AA0
:207AA00080EE800AD5ED0D0A30EE200A85ED0D0A96F85100D7ED020A00EE100AB8EE400A7D
:207AC00080EE800AD5ED0E0A30EE200A85ED0E0A96F8240060B10AA8009005F17803B0EEEE
:207AE000480A05F16C0207A905F1780005F08CFC05F19800009004F1180BCDF804B005F190
:207B0000E80305F1D80205F1B8010AA805F014FD96F8340001280CD1DFF88C1AB1E88C10C9
:207B20000EA8A0E88C100EA88EC8ABE88E00ABF1100B96F852A09BED000AB1EE400A8BED14
:207B4000000A04F1A0079BED010AB1EE400A8BED010A04F194089BED020AB1EE400A04F17D
:207B60000C098BED020A0EA95846FCF72BFBBAF1000F0ED10EA88169C8F80010C169C8F80B
:207B800004104946006AC8F80800584605F0C3F9A5E0BAF1010F40F0A2800EA8C269C8F88E
:207BA00000208269C8F8042090ED080AB1EE400A88ED020A40F093809BED020ADBED00AA94
:207BC000DBED01BA9BED03CAB1EE40BA2AEEAA0AF0EE000A60EE20CA2BEE0B0AB7EE001A5B
:207BE00000EE601A31EE6C0A10EE100A05F020FF2BEE0C0A0AEEAB0AF0EE000A41EC110B4F
:207C000020EE200AB0EE418AF0EE618A10EE100A05F00EFF41EC100BB0EE481AF0EE681A38
:207C200006F0E4FB51EC100B81F0004105F0ACFFB7EE000AC9F8000030EE6C0A6BEEAB0AB3
:207C4000B0EE001A00EEC10A10EE100A05F0F0FE2AEE8B0A0BEE8C0AF0EE000A41EC110B4B
:207C600020EE200AB0EE418AF0EE618A10EE100A05F0DEFE41EC100BB0EE481AF0EE681A09
:207C800006F0B4FB51EC100B81F0004105F07CFF2AEE8C0AC9F804000BEE6B0AF0EE000AFC
:207CA00020EE200A10EE100A05F0C2FE41EC100B06F074FC51EC100B81F0004105F064FFAF
:207CC000C9F8080099ED000AB5EE400AF1EE10FA05D5DFEDEC0A30EE200A89ED000A9FED85
:207CE000EA0AD9ED000A60EE800AC9ED000ABAF1000FD9ED010A60EE800AC9ED010AD9ED3E
:207D0000020A20EE800A89ED020A10D198ED000A30EE490A87ED000A98ED010A30EE690ABD
:207D200087ED010A98ED020A30EE4A0A12E0BAF1010F11D198ED000A30EE690A87ED000A94
:207D400098ED010A30EE490A87ED010A98ED020A30EE0A0A87ED020A002086F8260096F80E
:207D60005000810708D496F829109DF8082091FBF2F302FB131139B105F1A80205F1A80110
:207D80000AA805F02DF95EE140F0010086F8500095ED220A85ED260AD5F88C00C5F89C00D6
:207DA000D5F89000C5F8A000D5F89400C5F8A400DDED0A0A9DED0A1AF4EE410AF1EE10FAA5
:207DC00002BFD5ED2A0AF4EE600AF1EE10FA40F05181D5ED320AF4EE600AF1EE10FA04BFBF
:207DE000B4EE400AF1EE10FA40F0448105F1880805F1C8070EAA05F1A8010AA805F0F0F888
:207E000097ED000AD7ED010A97ED021AD7ED031A98ED032A8DED122A12A8D8ED022AB1EED2
:207E2000623A80ED043A12A9D8ED013AC0ED083A042298ED004AC0ED012AF1EE444AC0ED6A
:207E40000C4AC0ED094AF1EE634A80ED052AC0ED0D4AC0ED024A80ED064A80ED0A2A80EDDC
:207E60000E3A80ED034AC0ED073AC0ED0B2A80ED0F2A03A8002303609FED864AD1ED003A05
:207E800091ED013A91ED032AD1ED022A00EE234A00EE834A01EE224A01EE824A80ED004AB1
:207EA0001031001D521EE6D10EA8D0ED010A90ED021AD0ED031A03999DED0E0A9DED034A37
:207EC00012A80DF10C088161B1EE444A0399D8ED022AD8ED013A80ED0C4A80ED094AB1EE18
:207EE000623A98ED032AC160B1EE634A80ED043AC0ED083AC0ED012A80ED052A80ED0D4AF5
:207F000080ED024A80ED0A2A80ED0E3AC0ED073AC0ED0B2A80ED0F2A8DED122A03A812A9C0
:207F2000042203609FED5B4AD1ED003A91ED013A91ED032AD1ED022A00EE234A00EE834A2B
:207F400001EE224A01EE824A80ED004A1031001D521EE6D19DED030ADDED030A98ED018A51
:207F6000D8ED028A98ED039A9FED4A1A00EE201A08EE081A08EEA81A09EE091A11EE100A73
:207F800005F056FD41EC100B05F07EFD51EC100B05F0FAFD00EE100ADDED030AC0EE800A86
:207FA000CDED030ADDED031A9DED032AC8EE000A88EE801AF4EE421A89EE000AF1EE10FAE4
:207FC000C8ED010A88ED021A88ED030A52D10398A867C5ED1F0A85ED201A85ED210A05F1E7
:207FE000D801D5F8A800C5F8B800D5F8AC00C5F8BC00D5F8B000C5F8C000D5F8B400C5F894
:020000040800F2
:20800000C40096F8510000EE100AB8EE400A384605F0E2FADFF89005B0E88C1012A91038D3
:20802000A1E88C1012A9B1E8885005F1A8020EA9A2E88850B0E88C10A1E88C100EA805F131
:20804000E801ACC8ACC196F8520001280BD1E06994ED060AD4ED080AA06184ED070AB1EEA2
:20806000600A84ED080A22B00020BDEC0A8B01B0BDE8F08F22B04FF0FF30BDEC0A8B01B0DF
:20808000BDE8F08F560EC940E12E6542CA2109400000002000000000000000000000000045
:2080A000000000000000803F0000000000000000000000000000803F2DE9F04104460D465E
:2080C0002DED0A8B05F11800E0B0DFF8BC84D0ED020A90ED011AD0ED001A98F9180EB0EEAF
:2080E000408A00EE100A98F9190EB8EEC00A02EE100A20EE210AB8EEC22A98F91A0E02EE08
:20810000010A02EE100AB8EEC22A98F91B0E02EE200A02EE100A98F91C0EB8EEC22A02EE9D
:20812000900A22EE212AF8EEE22A98F91D0E02EE812A02EE900AF8EEE22A98F91E0E02EED8
:20814000A02A02EE900AF8EEE22A98F91F0E62EEA18A01EE900AF8EEE11A98F9200E41EE48
:20816000818A01EE100AB8EEC11A05F1240041EE208AD0ED020A90ED011AD0ED001A98F9AE
:20818000360E02EE900AF8EEE22A98F9370E22EEA19A02EE900AF8EEE22A98F9380E02EEBB
:2081A000819A02EE900A98F9300EB1EE40AA00EE100A98F9310EF1EE429AB8EEC00A02EECF
:2081C000100A20EE210AB8EEC22A98F9320E02EE010A02EE100AB8EEC22A98F9330E02EE90
:2081E000200A02EE100AB8EEC22A98F9340E62EE211A02EE100AB8EEC22A98F9350E42EEBB
:20820000011A01EE100AF8EEE22AB8EEC11A02EEA09A41EE201AB1EE40BA98F8720E16462F
:208220001F46F1EE61AA9FEDDB0ADFEDDB0A9FEDDB1A78B329EEA90A0AEE0A0A08EEA80AA3
:2082400010EE100A05F0F4FB41EC100B05F01CFC51EC100B05F098FC00EE100AC9EE809A13
:208260008AEE00AAC8EE808A9FEDC80B05F00CFC51EC100B05F088FC01EE100A9FEDC50A8B
:20828000DFEDC50A80EE010AC0EE810ADFEDC31A81EE811A96F8500040F0020080F001005D
:2082A00086F85000F82296F8510001EE900AA86FC5F88800F8EE611AE86FC5F88C0021EE02
:2082C000888AD5F88000C5F890002946D5F88400C5F8940019A806F079F9CDED1F9A8DEDCB
:2082E00020AACDED218A8DED1C0ACDED1D0A8DED1E1ACDED22AA8DED23BA8DED249A0020E7
:2083000028636863A863DFF8680B119004F1FA00109004F1F9000F9004F1F8000E9016A8AC
:208320000D9004F158000C9004F1EC000B9004F1E8000A9057A8099005F1C800089012A81C
:20834000079096F82400069096F82300059096F82200049096F82100039096F82000029032
:2083600034A8019028A80090F06C05F061FBD6ED126A96ED116AD6ED102A41EC170BF06AA0
:20838000F0EE628AB0EE46AAF0EE66AAB0EE479AF0EE679A05F04CFB41EC150BB0EE497A4F
:2083A000F0EE697AF0EE6A6AB0EE4A6A96F82600B0EE459AF0EE659AB0EE46BAF0EE66BA4E
:2083C000B0EE47AAF0EE67AA05F048FC41EC140BB0EE4A7AF0EE6A7AF0EE6B6AB0EE4B6A70
:2083E000B0EE495AF0EE695A3069B0EE449AF0EE649AB0EE45AAF0EE65AAB0EE46CAF0EEA4
:2084000066CAB0EE47BAF0EE67BA05F011FB41EC130BB0EE4B7AF0EE6B7AF0EE6C6AB0EECA
:208420004C6AF0EE682AB0EE4A5AF0EE6A5AB0EE494AF0EE694A96ED032AD6ED021A96ED5E
:20844000011AD6ED000AB0EE480A25AB1FAA1CA93BA804F023FE47B11298386012A8416851
:2084600079608168B960C068F86094F8FA0001281BD1002086F8340088F8720E1298A8677B
:2084800012A84168E9678168C5F88010C168C5F884101299C5F888104168C5F88C1081688E
:2084A000C5F89010C068C5F894009FED3D8B169805F0BEFA53EC182B05F03EFEDFF8B829CC
:2084C000DFF8B83905F0D8FB05F05EFBE86616AF786805F0ADFA53EC182B05F02DFEDFF8B6
:2084E0009829DFF8983905F0C7FB05F04DFB2867B86805F09DFA53EC182B05F01DFEDFF87B
:208500007829DFF8783905F0B7FB05F03DFB686794F8F91098F8730E69B10A28B8BF401CCA
:208520000ADB1699C4F888107968C4F88C10B968C4F8901000E0002088F8730E96F85000BE
:2085400080F0020086F8500060B0BDEC0A8BBDE8F08100008195633F21B02A40CFF7133F6C
:2085600083C02A3F000020410000704200001642295C0F3E0000F041282C713927A0093AD9
:208580000742B239CDCCCC3D00000020000000E0285CEF3F3333333F00000000333333BF23
:2085A0000000000000806640188B000891F90030D2ED000A92ED011A00EE103AB8EEC00A25
:2085C00091F9013020EE200A00EE903AF8EEE00A91F9023000EE810A00EE903AF8EEE00A63
:2085E00092ED021A00EE810A80ED000A91F90330D2ED000A92ED011A00EE103AB8EEC00A28
:2086000091F9043020EE200A00EE903AF8EEE00A91F9053000EE810A00EE903AF8EEE00A1C
:2086200092ED021A00EE810A80ED010A91F90630D2ED000A92ED011A00EE103AB8EEC00AE3
:2086400091F9073091F9081020EE200A00EE903AF8EEE00A00EE810A00EE901AF8EEE00A16
:2086600092ED021A00EE810A80ED020A704700002DE9F041DFF8083803F6186403F6246561
:2086800003F563665FF003074FF0000C04F801CB05F801CB06F801CB04F801CB05F801CB89
:2086A00006F801CB04F801CB05F801CB7F1E06F801CBEBD10478A4F14205182D0D7838BF23
:2086C0002034A5F14206182E167838BF2035A6F14207182F477838BF2036A7F1420CBCF182
:2086E000180F91F801C038BF2037ACF1420EBEF1180F92F801E0807838BF0CF1200CAEF1D6
:208700004208B8F1180F38BF0EF1200EA0F1420889789278B8F1180F38BF2030A1F1420842
:20872000B8F1180F38BF2031A2F14208B8F1180F38BF2032E4B2642C4FF0FF381BD0652C13
:208740000AD06E2C0CD0732C0ED0752C0FD0772C08BF83F8188E10E0012483F8184E0CE05F
:20876000012483F81B4E08E083F81B8E05E0012483F81E4E01E083F81E8EFFB2642F1BD0BC
:20878000652F0AD06E2F0CD0732F0ED0752F0FD0772F08BF83F8198E10E0012483F8194E69
:2087A0000CE0012483F81C4E08E083F81C8E05E0012483F81F4E01E083F81F8EC0B26428BD
:2087C0001BD065280AD06E280CD073280ED075280FD0772808BF83F81A8E10E0012083F8CB
:2087E0001A0E0CE0012083F81D0E08E083F81D8E05E0012083F8200E01E083F8208EEDB238
:20880000642D1BD0652D0AD06E2D0CD0732D0ED0752D0FD0772D08BF83F8308E10E0012045
:2088200083F8300E0CE0012083F8330E08E083F8338E05E0012083F8360E01E083F8368EAD
:208840005FFA8CF064281BD065280AD06E280CD073280ED075280FD0772808BF83F8318E5E
:2088600010E0012083F8310E0CE0012083F8340E08E083F8348E05E0012083F8370E01E097
:2088800083F8378EC9B264291BD065290AD06E290CD073290ED075290FD0772908BF83F8F1
:2088A000328E10E0012083F8320E0CE0012083F8350E08E083F8358E05E0012083F8380E74
:2088C00001E083F8388EF6B2642E1BD0652E0AD06E2E0CD0732E0ED0752E0FD0772E08BFFF
:2088E00083F8248E10E0012083F8240E0CE0012083F8270E08E083F8278E05E0012083F837
:208900002A0E01E083F82A8E5FFA8EF064281BD065280AD06E280CD073280ED075280FD0EF
:20892000772808BF83F8258E10E0012083F8250E0CE0012083F8280E08E083F8288E05E028
:20894000012083F82B0E01E083F82B8ED2B2642A20D0652A0BD06E2A0ED0732A11D0752A2E
:2089600013D0772A08BF83F8268EBDE8F081012083F8260EBDE8F081012083F8290EBDE809
:20898000F08183F8298EBDE8F081012083F82C0EBDE8F08183F82C8EBDE8F081F0B4A0B0F3
:2089A0000FF27412F0CA1CAB103AF0C31CABB3E8E01000F1780418ABA4E8E010F0CAF0C347
:2089C00018ABB3E8E01000F18804103AA4E8E010F0CA14AB103AF0C314ABB3E8E01000F155
:2089E000980410ABA4E8E010F0CAF0C310ABB3E8E01000F1A804103AA4E8E010F0CA0CAB1D
:208A0000103AF0C30CABB3E8E01000F1B80408ABA4E8E010F0CAF0C308ABB3E8E01000F19F
:208A2000C804103AA4E8E010F0CA04AB103AF0C304ABB3E8E01000F1D80400ABA4E8E01010
:208A4000F0CAF0C300F1E803B7EE000AF0C380ED0F0A002202644264826480ED130A0265E0
:208A60004265826580ED170A026642668266C26602674267DFF80C040860DFF80C044860CA
:208A8000DFF808048860DFF80804C860DFF804040861DFF804044861DFF800048861DFF895
:208AA0000004C861DFF8FC038863012081F8200081F8210081F8222081F8230081F8240080
:208AC00081F8252081F8262081F827200A2081F82800282081F83C00CA62012081F8340097
:208AE000022081F8290081F8502081F8510081F85220ED480864ED484864ED488864ED483C
:208B0000C86420B0DA48C0F8A020C0F8A420C0F8A820F0BC70470000000000000000000060
:208B2000000000000000803F70B505462DED048BB0EE408AD5ED008AF4EE488AF1EE10FA0C
:208B40000C462ADA95ED099AB4EE498AF1EE10FA28DACB484168006805F016F8B4EE688A7F
:208B6000F1EE10FAA4BFB4EE489AF1EE10FA00EE100A3FDB012002210A2213185B0805EB2C
:208B80008306361F96ED000AB4EE408AF1EE10FAA6BF1846591C1A4609E0BDEC048B94EDDB
:208BA000000A70BDBDEC048B94ED090A70BD9142E3D3411C04EB800205EB800050F8040C66
:208BC00052F8042C00EE900A05EB8100001F38EE601AD0ED001A04EB810071EEE00A001FB4
:208BE000C1EE200A00EE102A90ED001A31EE401A00EE810ABDEC048B70BD70B505462DEDFC
:208C0000048BB0EE408AD5ED008AF4EE488AF1EE10FA0C462ADA95ED0C9AB4EE498AF1EEA2
:208C200010FA28DA96484168006804F0ADFFB4EE688AF1EE10FAA4BFB4EE489AF1EE10FA4C
:208C400000EE100A3FDB012002210D2213185B0805EB8306361F96ED000AB4EE408AF1EE4B
:208C600010FAA6BF1846591C1A4609E0BDEC048B94ED000A70BDBDEC048B94ED0C0A70BD7D
:208C80009142E3D3411C04EB800205EB800050F8040C52F8042C00EE900A05EB8100001F23
:208CA00038EE601AD0ED001A04EB810071EEE00A001FC1EE200A00EE102A90ED001A31EEAE
:208CC000401A00EE810ABDEC048B70BD10B504462DED0E8B94F8CE080028B0EE408A70D167
:208CE000012084F8CE08002104F6B80080ED008A002094ED029B53EC192B05F0E9F841EC73
:208D0000100B04F6BC0053EC102B80ED008A94ED04AB51EC1A0B05F0DBF841EC100B04F675
:208D2000C00053EC102B80ED008A94ED06BB51EC1B0B05F0CDF841EC100B04F6C40053EC5E
:208D4000102B80ED008A94ED08CB51EC1C0B05F0BFF841EC100B04F6C80053EC102B80ED8C
:208D6000008A94ED0ADB51EC1D0B05F0B1F841EC1E0B51EC190B53EC1E2B04F07DFFC4E9A4
:208D8000020153EC1E2B51EC1A0B04F075FFC4E9040153EC1E2B51EC1B0B04F06DFFC4E9D4
:208DA000060153EC1E2B51EC1C0B04F065FFC4E9080153EC1E2B51EC1D0B04F05DFFC4E9C8
:208DC0000A01D4F8C40809EE100A04F6C80080ED009AD4E90A0104F0D7FE00EE100ADFEDB1
:208DE000258AD4F8C00840EE098A09EE100A04F6C40080ED009AD4E9080104F0C5FE00EE2E
:208E0000100AD4F8BC0840EE098A09EE100A04F6C00080ED009AD4E9060104F0B5FE00EEBC
:208E2000100AD4F8B80840EE098A09EE100A04F6BC0080ED009AD4E9040104F0A5FE00EEB6
:208E4000100A04F6B80040EE098A80ED008AD4E9020104F099FE00EE100AD4F8B80800EEC1
:208E6000900A40EE208AB0EE680ABDEC0E8B10BDF0120020000000006F1283C0CA21094047
:208E8000000000208195633F21B02A40CFF7133F83C02A3F00002041000070420000164290
:208EA000295C0F3E0000F041282C713927A0093A0742B239CDCCCC3D2DE9F04F81B089467C
:208EC0002DED108B93462DED030A81B098462DED043BADF5AF6DDFF8681EB1E87C500746A8
:208EE0000DF5A460B0EE618AA0E87C50B1E87C10A0E87C10DFF84C1EB1E87C50FFA8F030E9
:208F0000B0EE42FAA0E87C50B1E87C10A0E87C10DFF8341EB1E87C500DF59760A0E87C500F
:208F2000B1E87C10A0E87C10DFF8201EB1E87C50FFA88830A0E87C50B1E87C10A0E87C1092
:208F4000DFF80C1E7CC90DF585607CC07CC97CC0DFF8001E7CC90DF580607CC07CC97CC04E
:208F6000DFF8F41D7CC9F6A87CC07CC97CC0DFF8EC1DB1E87C501BA8DFF8E41DA0E87C5035
:208F8000B1E87C5044A8A0E87C50DDF82816DFF8D44D00200870DDF82C160870DDF83016DF
:208FA0000870D9F80000C4F83C0ED9F80400C4F8400ED9F80800C4F8440E4846FBF7E4F840
:208FC00004F6E86080ED000A04F6EC6080ED000A5846FBF7D9F8B0EE40BA99ED000ADDF8BD
:208FE00038568DED120A0DF1040AD9F804001390DFEDA4BAD9F808001490DBF800000090BF
:209000001590D4F8E80E00EE900A80EE209A9DED000A80EE0B0A8DED010ADBF80400009036
:20902000169099ED010AC0EE209A9DED000A80EE0B0A8AED010ADBF808000090179099ED60
:20904000021A81EE20AADDED000A9DED011AC0EE8B0ACAED020A49EE01BA95F8CD0849EEB1
:2090600080BA00284AEE20BA40F0038285F83000F7EE008A012085F8CD0885F831004DF845
:2090800004CD0DF580605DF804CB90ED610B85ED0E0B04AE002004907060B060F06005F1F9
:2090A0004001B0EE680A09E018B1042818BF082802D1B0EE680A01E09FED720A401C18BF7B
:2090C000042881ED000A04D0082818BF9FED6D0A01D1B0EE680A401C18BF042881ED010A54
:2090E00004D0082818BF9FED670A01D1B0EE680A81ED020A401C0C310928D5DB05F1640068
:2091000003210022026042608260C2601030491EF8D1C5F89420C5F89820C5F89C20DFF85B
:20912000500CC5F8AC00C5ED2C8AC5ED2D8ADDF8140690ED000AB5EE400AF1EE10FA05F157
:20914000B800B1EE040A30D10A2291FBF2F202EB8203B1EB43020CBFF0EE400ADFED490AA8
:20916000491C0A2291FBF2F202EB8203C0ED000AB1EB43020CBFF0EE400ADFED420A491C74
:209180000A2291FBF2F202EB8203C0ED010AB1EB43020CBFF0EE400ADFED3A0AC0ED020A6C
:2091A000491C0C305129CFDB2FE00A2291FBF2F202EB8203B1EB43020CBFF0EE400ADFED2D
:2091C000310A491C0A2291FBF2F202EB8203C0ED000AB1EB43020CBFF0EE400ADFED290A57
:2091E000491C0A2291FBF2F202EB8203C0ED010AB1EB43020CBFF0EE400ADFED220AC0EDCB
:20920000020A491C0C305129CFDB01220C2105F5FE7005F007FA002005F50571B0EE680A2F
:2092200009E018B1042818BF082802D1B0EE680A01E09FED140A401C18BF042881ED000A04
:2092400004D0082818BF9FED0F0A01D1B0EE680A401C18BF042881ED010A04D0082818BFF9
:209260009FED080A01D1B0EE680A81ED020A401C0C310928D5DB002005F50E71B0EE680AD1
:209280000CE000BF0000000018B1042818BF082802D1B0EE680A01E09FEDBD0A401C18BFDD
:2092A000042881ED000A04D0082818BF9FEDB80A01D1B0EE680A401C18BF042881ED010A27
:2092C00004D0082818BF9FEDB20A01D1B0EE680A81ED020A401C0C310928D5DB05F5177014
:2092E0001E2100220260426082600C30491EF9D1C5F8C423C5F8C823C5F8CC23C5F8D02312
:20930000C5F8D423C5F8E023C5F8EC23C5F8F823C5F8D823C5F8E423C5F8F023C5F8FC230D
:20932000C5F8DC23C5F8E823C5F8F423C5F80024C5F80424C5F80824C5F80C24C5F8102448
:20934000C5F81424C5F81824C5F81C244FF08040C5F82004C5F82424C5F82824C5F82C2427
:20936000C5F83024C5F8342405F23C40C5F838240DF58061C0ED008AD1E9600104F004FC12
:2093800000EE100ADFED830A05F2404020EE200A80ED000A0020C5F844041E2205F2484062
:2093A000C0ED008A0020C5F84C04C5F85004C5F854043220C5F858040020C5F85C0422A8B1
:2093C000D9F800102291D9F804104160D9F808108160DBF80010C160DBF804100161DBF889
:2093E00008104161D8F800108161D8F80410C161D8F80810016205F58C60012100EB810329
:209400000DF18C064FF0030C56F804EC43F804ECC91CD6F800E0C3F800E0D6F804E0C3F86A
:2094200004E00C360C33BCF1010CEDD1521EE5D1DDF814060068C5F89808DDF814064068DE
:20944000C5F89C08DDF814068068C5F8A008002085F8A408A5F8A608A5F8A8084FF47A7061
:20946000A5F8AA08002085F8AD0885F8AE08C5F8B00804AE3868049078687060B868B060DD
:20948000F868F0604DF804CD0DF580605DF804CB90ED610B85ED0E0B0DF58061D1E960018E
:2094A00004F072FB0AEE900A9FED3A0A05F240402AEE800A80ED000A05F578700321002231
:2094C0000260DFED330AD4F8E02D90ED201A00EE102A40EE010AC0ED000AD4F8E42DD0EDDF
:2094E000291A01EE102A41EE210AC0ED000AD4F8E82D90ED322A01EE902A41EE820AC0ED24
:20950000000AD4F8EC2DD0ED3B2A02EE102A42EE220AC0ED000AD4F8F02D90ED443A02EE29
:20952000902A42EE830AC0ED000A001D491EC6D105F57B70032100220260DFED150A90EDED
:20954000203A40EE030AC0ED000A90ED293A41EE030AC0ED000A90ED323A41EE830AC0ED9A
:20956000000A90ED3B3A42EE030AC0ED000A90ED443A42EE830AC0ED000A001D491EDBD15C
:2095800005F57E7003210260DFED010A04E000BF000000000AD7A33C90ED203A40EE030A11
:2095A000C0ED000A90ED293A41EE030AC0ED000A90ED323A41EE830AC0ED000A90ED3B3AD3
:2095C00042EE030AC0ED000A90ED443A42EE830AC0ED000A001D491ED5D105F57870FAF72B
:2095E000D3FD04F6A86080ED000A05F57B70FAF7CBFD04F6AC6080ED000A05F57E70FAF72E
:20960000C3FD04F6B06080ED000AD4F8A80EC5F80404D4F8AC0EC5F80804D4F8B00EC5F82C
:209620000C040198C5F84002DAF80400C5F84C029AED020A85ED960A95ED931AD5ED900A71
:2096400061EE0A1A40EE691A20EE090A00EECA0A60EEA90AC5ED8F1A41EE490A85ED920A17
:20966000C5ED950A95ED921A95ED8F0A21EE011A00EE001A00EEA01A11EE100A04F0D8F998
:2096800041EC100B04F000FA51EC100B04F07CFA00EE100AD5ED8F0AC0EE800AC5ED8F0AEC
:2096A00009AAD5ED920AC0EE800AC5ED920A05F50E71D5ED950A80EE800A85ED950AD5ED6E
:2096C000921AD5ED962A95ED932AD5ED8F0A95ED901A21EEA23A00EE423A20EE010A00EE3A
:2096E000E20A60EE820A85ED8E3A41EEC10A85ED910AC5ED940A05F5057003F049FA9DEDE4
:20970000090ADDED118A9DED0DCA9DED0E1AF7EE000A70EE20CA3CEECC0A30EE680AB5EE54
:20972000400ADDED100AF1EE10FA70EEC10AF5EE400AD8BF9FED4F0ADDED0B0A9DED0F1AAE
:20974000F1EE10FA70EEC10AF5EE400A4CBFDFED4ADADFED4ADADDED0C0A9DED0A1AF1EE72
:2097600010FA70EEC10A4CBFDFED43EADFED43EAF5EE400AF1EE10FA4CBF9FED3FDA9FED67
:209780003FDA10EE100A04F053F941EC100B04F07BF951EC100B04F0F7F900EE100AF6EE80
:2097A000000A20EE200AF8EEED0A60EE20DAB7EE000ADDED090A30EE60EA3EEE0C0A30EEEE
